{
  "_format": "hh-sol-artifact-1",
  "contractName": "Voting",
  "sourceName": "contracts/Voting.sol",
  "abi": [
    {
      "inputs": [
        {
          "internalType": "string[]",
          "name": "_candidates",
          "type": "string[]"
        }
      ],
      "stateMutability": "nonpayable",
      "type": "constructor"
    },
    {
      "inputs": [
        {
          "internalType": "uint256",
          "name": "",
          "type": "uint256"
        }
      ],
      "name": "candidates",
      "outputs": [
        {
          "internalType": "string",
          "name": "",
          "type": "string"
        }
      ],
      "stateMutability": "view",
      "type": "function"
    },
    {
      "inputs": [],
      "name": "getCandidates",
      "outputs": [
        {
          "internalType": "string[]",
          "name": "",
          "type": "string[]"
        }
      ],
      "stateMutability": "view",
      "type": "function"
    },
    {
      "inputs": [
        {
          "internalType": "address",
          "name": "",
          "type": "address"
        }
      ],
      "name": "hasVoted",
      "outputs": [
        {
          "internalType": "bool",
          "name": "",
          "type": "bool"
        }
      ],
      "stateMutability": "view",
      "type": "function"
    },
    {
      "inputs": [
        {
          "internalType": "string",
          "name": "_candidate",
          "type": "string"
        }
      ],
      "name": "vote",
      "outputs": [],
      "stateMutability": "nonpayable",
      "type": "function"
    },
    {
      "inputs": [
        {
          "internalType": "string",
          "name": "",
          "type": "string"
        }
      ],
      "name": "votes",
      "outputs": [
        {
          "internalType": "uint256",
          "name": "",
          "type": "uint256"
        }
      ],
      "stateMutability": "view",
      "type": "function"
    }
  ],
  "bytecode": "0x608060405234801561001057600080fd5b5060405161117038038061117083398181016040528101906100329190610384565b806001908051906020019061004892919061004f565b50506106c0565b828054828255906000526020600020908101928215610097579160200282015b8281111561009657825182908161008691906105ee565b509160200191906001019061006f565b5b5090506100a491906100a8565b5090565b5b808211156100c857600081816100bf91906100cc565b506001016100a9565b5090565b5080546100d890610407565b6000825580601f106100ea5750610109565b601f016020900490600052602060002090810190610108919061010c565b5b50565b5b8082111561012557600081600090555060010161010d565b5090565b6000604051905090565b600080fd5b600080fd5b600080fd5b6000601f19601f8301169050919050565b7f4e487b7100000000000000000000000000000000000000000000000000000000600052604160045260246000fd5b61018b82610142565b810181811067ffffffffffffffff821117156101aa576101a9610153565b5b80604052505050565b60006101bd610129565b90506101c98282610182565b919050565b600067ffffffffffffffff8211156101e9576101e8610153565b5b602082029050602081019050919050565b600080fd5b600080fd5b600067ffffffffffffffff82111561021f5761021e610153565b5b61022882610142565b9050602081019050919050565b60005b83811015610253578082015181840152602081019050610238565b60008484015250505050565b600061027261026d84610204565b6101b3565b90508281526020810184848401111561028e5761028d6101ff565b5b610299848285610235565b509392505050565b600082601f8301126102b6576102b561013d565b5b81516102c684826020860161025f565b91505092915050565b60006102e26102dd846101ce565b6101b3565b90508083825260208201905060208402830185811115610305576103046101fa565b5b835b8181101561034c57805167ffffffffffffffff81111561032a5761032961013d565b5b80860161033789826102a1565b85526020850194505050602081019050610307565b5050509392505050565b600082601f83011261036b5761036a61013d565b5b815161037b8482602086016102cf565b91505092915050565b60006020828403121561039a57610399610133565b5b600082015167ffffffffffffffff8111156103b8576103b7610138565b5b6103c484828501610356565b91505092915050565b600081519050919050565b7f4e487b7100000000000000000000000000000000000000000000000000000000600052602260045260246000fd5b6000600282049050600182168061041f57607f821691505b602082108103610432576104316103d8565b5b50919050565b60008190508160005260206000209050919050565b60006020601f8301049050919050565b600082821b905092915050565b60006008830261049a7fffffffffffffffffffffffffffffffffffffffffffffffffffffffffffffffff8261045d565b6104a4868361045d565b95508019841693508086168417925050509392505050565b6000819050919050565b6000819050919050565b60006104eb6104e66104e1846104bc565b6104c6565b6104bc565b9050919050565b6000819050919050565b610505836104d0565b610519610511826104f2565b84845461046a565b825550505050565b600090565b61052e610521565b6105398184846104fc565b505050565b5b8181101561055d57610552600082610526565b60018101905061053f565b5050565b601f8211156105a25761057381610438565b61057c8461044d565b8101602085101561058b578190505b61059f6105978561044d565b83018261053e565b50505b505050565b600082821c905092915050565b60006105c5600019846008026105a7565b1980831691505092915050565b60006105de83836105b4565b9150826002028217905092915050565b6105f7826103cd565b67ffffffffffffffff8111156106105761060f610153565b5b61061a8254610407565b610625828285610561565b600060209050601f8311600181146106585760008415610646578287015190505b61065085826105d2565b8655506106b8565b601f19841661066686610438565b60005b8281101561068e57848901518255600182019150602085019450602081019050610669565b868310156106ab57848901516106a7601f8916826105b4565b8355505b6001600288020188555050505b505050505050565b610aa1806106cf6000396000f3fe608060405234801561001057600080fd5b50600436106100575760003560e01c806306a49fce1461005c57806309eef43e1461007a5780633477ee2e146100aa578063b99ef1fa146100da578063fc36e15b1461010a575b600080fd5b610064610126565b6040516100719190610567565b60405180910390f35b610094600480360381019061008f91906105fb565b6101ff565b6040516100a19190610643565b60405180910390f35b6100c460048036038101906100bf9190610694565b61021f565b6040516100d1919061070b565b60405180910390f35b6100f460048036038101906100ef9190610862565b6102cb565b60405161010191906108ba565b60405180910390f35b610124600480360381019061011f9190610862565b6102f9565b005b60606001805480602002602001604051908101604052809291908181526020016000905b828210156101f657838290600052602060002001805461016990610904565b80601f016020809104026020016040519081016040528092919081815260200182805461019590610904565b80156101e25780601f106101b7576101008083540402835291602001916101e2565b820191906000526020600020905b8154815290600101906020018083116101c557829003601f168201915b50505050508152602001906001019061014a565b50505050905090565b60026020528060005260406000206000915054906101000a900460ff1681565b6001818154811061022f57600080fd5b90600052602060002001600091509050805461024a90610904565b80601f016020809104026020016040519081016040528092919081815260200182805461027690610904565b80156102c35780601f10610298576101008083540402835291602001916102c3565b820191906000526020600020905b8154815290600101906020018083116102a657829003601f168201915b505050505081565b6000818051602081018201805184825260208301602085012081835280955050505050506000915090505481565b600260003373ffffffffffffffffffffffffffffffffffffffff1673ffffffffffffffffffffffffffffffffffffffff16815260200190815260200160002060009054906101000a900460ff1615610386576040517f08c379a000000000000000000000000000000000000000000000000000000000815260040161037d90610981565b60405180910390fd5b60008160405161039691906109dd565b908152602001604051809103902060008154809291906103b590610a23565b91905055506001600260003373ffffffffffffffffffffffffffffffffffffffff1673ffffffffffffffffffffffffffffffffffffffff16815260200190815260200160002060006101000a81548160ff02191690831515021790555050565b600081519050919050565b600082825260208201905092915050565b6000819050602082019050919050565b600081519050919050565b600082825260208201905092915050565b60005b8381101561047b578082015181840152602081019050610460565b60008484015250505050565b6000601f19601f8301169050919050565b60006104a382610441565b6104ad818561044c565b93506104bd81856020860161045d565b6104c681610487565b840191505092915050565b60006104dd8383610498565b905092915050565b6000602082019050919050565b60006104fd82610415565b6105078185610420565b93508360208202850161051985610431565b8060005b85811015610555578484038952815161053685826104d1565b9450610541836104e5565b925060208a0199505060018101905061051d565b50829750879550505050505092915050565b6000602082019050818103600083015261058181846104f2565b905092915050565b6000604051905090565b600080fd5b600080fd5b600073ffffffffffffffffffffffffffffffffffffffff82169050919050565b60006105c88261059d565b9050919050565b6105d8816105bd565b81146105e357600080fd5b50565b6000813590506105f5816105cf565b92915050565b60006020828403121561061157610610610593565b5b600061061f848285016105e6565b91505092915050565b60008115159050919050565b61063d81610628565b82525050565b60006020820190506106586000830184610634565b92915050565b6000819050919050565b6106718161065e565b811461067c57600080fd5b50565b60008135905061068e81610668565b92915050565b6000602082840312156106aa576106a9610593565b5b60006106b88482850161067f565b91505092915050565b600082825260208201905092915050565b60006106dd82610441565b6106e781856106c1565b93506106f781856020860161045d565b61070081610487565b840191505092915050565b6000602082019050818103600083015261072581846106d2565b905092915050565b600080fd5b600080fd5b7f4e487b7100000000000000000000000000000000000000000000000000000000600052604160045260246000fd5b61076f82610487565b810181811067ffffffffffffffff8211171561078e5761078d610737565b5b80604052505050565b60006107a1610589565b90506107ad8282610766565b919050565b600067ffffffffffffffff8211156107cd576107cc610737565b5b6107d682610487565b9050602081019050919050565b82818337600083830152505050565b6000610805610800846107b2565b610797565b90508281526020810184848401111561082157610820610732565b5b61082c8482856107e3565b509392505050565b600082601f8301126108495761084861072d565b5b81356108598482602086016107f2565b91505092915050565b60006020828403121561087857610877610593565b5b600082013567ffffffffffffffff81111561089657610895610598565b5b6108a284828501610834565b91505092915050565b6108b48161065e565b82525050565b60006020820190506108cf60008301846108ab565b92915050565b7f4e487b7100000000000000000000000000000000000000000000000000000000600052602260045260246000fd5b6000600282049050600182168061091c57607f821691505b60208210810361092f5761092e6108d5565b5b50919050565b7f416c726561647920766f74656421000000000000000000000000000000000000600082015250565b600061096b600e836106c1565b915061097682610935565b602082019050919050565b6000602082019050818103600083015261099a8161095e565b9050919050565b600081905092915050565b60006109b782610441565b6109c181856109a1565b93506109d181856020860161045d565b80840191505092915050565b60006109e982846109ac565b915081905092915050565b7f4e487b7100000000000000000000000000000000000000000000000000000000600052601160045260246000fd5b6000610a2e8261065e565b91507fffffffffffffffffffffffffffffffffffffffffffffffffffffffffffffffff8203610a6057610a5f6109f4565b5b60018201905091905056fea2646970667358221220e112237b74e6377d850992097e8b07bded62e6868f667b59f89f3def3a97df2164736f6c634300081c0033",
  "linkReferences": {},
  "deployedLinkReferences": {}
}